:400000000080002011000000FD040000FD04000008B5044B1A6803F53F5302331A6000F075FA00BFFA46004010B5054C237833B9044B13B10448AFF300800123237010BD06
:400040005081FF1F0000000030160000084B10B51BB108490848AFF300800848036803B910BD074B002BFBD0BDE81040184700BF000000005481FF1F30160000C880FF1F66
:400080000000000008B500F09DFA0122014B1A7008BD00BF7081FF1F08B500F085FE064B1870732802D10122044B1A606F2802D10122034B1A6008BDA381FF1F6C81FF1FA6
:4000C0007481FF1F08B500F0A5FD01F085F900F05DFE08BD08B562B6064801F0FBF8064801F046FAFFF7EEFF044B187800F06AF8FAE700BF85000000990000007081FF1FB8
:400100000022014B1A707047A281FF1F10B500240FE000F0F1FD0E4B186080B20D4B1880020A0D4B1A700D4B18700D4B23F814000134B4F5806FECDB00F036FE094B18703D
:40014000094B1B68012B02D10222074B1A7110BD9C81FF1F9881FF1FA081FF1FA181FF1FA481FF1FA381FF1F6C81FF1F38B500240AE0114D15F8140000F02CFE35F8140085
:40018000000A00F027FE0134B4F5806FF1DB0B4A13780133DBB21370094A9268012A09D1092B02D8064B1A7138BD092B02D90022034B1A7138BD00BFA481FF1FA281FF1FF0
:4001C0006C81FF1F08B5012803D0A0B1022809D008BD012000F016FEFFF798FF002000F011FE08BD012000F019FEFFF7BFFF002000F014FE08BD012000F0F8FDFFF780FF4E
:40020000002000F0F3FD08BDFEE700BFF0B40022174611E050F82760F3B226F0FF0608E001EB420511F812406D78A5550132013BDBB2002BF4D101371B2FEBD9F0BC7047C8
:400240000C4B1B78DBB203F007010B4A11701B09013213703022094B1A70012203F683031A70022280331A704422A3F28A231A70704700BFCF0100496E580040FD5100404A
:4002800008B50A46002101F0CAF908BD08B501F0BBF908BD38B50024324B1C80502202331A704FF49C7202331A8018232E4A137040F65F11023211800232137004222B4903
:4002C0002B48FFF7E3FF02222A4B1A7008224FF040231A70032103F500731970264B1B78DBB226490B70264B1A8041F25122023B1A8019250CE0234B1B7803F0010343EAD0
:40030000440404F003044FF4F07001F041F9013D0DB1032CEFD115B90320FFF775FF1A4B4FF480721A8007221A70002217490A704820023108701A700222033B1A700422D4
:400340000A331A70124A137843F007031370013A137843F001031370013A137843F08003137038BD804000408640004094040048004100400043004008010049A146004038
:4003800022420040254200400440004006400040A2430040012807D8044B53F820201844017A13780B431370704700BF34160000012808D8044B53F820201844017A1378A9
:4003C00023EA0103137070473416000038B572B6384A137843F00403137000240BE0364863001A19510001440A46098AD068FFF747FF0134E4B2082CF1D900240BE02E492A
:40040000A3001819420088188022816C406CFFF73DFF0134E4B2002CF1D028494FF09040FFF7F4FE0A25264B1D7004212548FFF727FF04212448FFF723FF244A137843F0C9
:40044000020313701032137843F002031370204C237843F040032370A2F58632513A137843F01003137008221A491B48FFF70EFF08221A491A48FFF709FF2A4619491A481A
:40048000FFF704FF194A137843F008031370184D61232B70FFF7FEFE81232B700122154B1A70FFF7CDFE0E2221461348FFF7EEFE38BD00BFE8460040341600007000004819
:4004C00083580040007600400876004003500140A043004078040048F251004080040048125100408804004820510040224300400048004004000840B043004008B501F021
:4005000057F803680C2B00D1FEE7FEE708B5104E104D16E029686B68AC68002204E051F8040B43F8040B0432A242F8D1E868002203E0002143F8041B04328242F9D11035E5
:40054000013E002EE6D101F039F8FFF7C3FDFEE701000000F81A000008B5114A114B1A60114A136843F40073136000230AE0032B03D80E4A52F8231000E00D490D4A42F8F4
:40058000231001332F2BF2D90B4B1A780B4B1A70084A0B4B1A60FFF719FF00F07DFD08BD0004FA050CED00E014ED00E000000000FD0400000080FF1FBC760040C080FF1F5C
:4005C00008ED00E0014B1878C00970478245004038B59DF81040651EEDB2032D51D8013809282ED8DFE800F0052D2D052D2D0F192D230F2B03D92548007840B222E02448BE
:40060000007840B21EE00F2B03D92248007840B218E02148007840B214E00F2B03D91F48007840B20EE01E48007840B20AE00F2B03D91C48007840B204E01B48007840B285
:4006400000E0002001EB401101FB02F2D20B91B20D2B0BD8C3F10E0192B20A4191B2621E124800EB82020133937005E0631E0F4A02EB83030F229A70013C0C4B23F82410AD
:4006800038BD002000F0D4FD38BD00BF180100491C010049190100491D0100491A0100491E0100491B0100491F0100497881FF1FF8B5074600F074FF06460D4D2B7843F094
:4006C00003032B700B4C237843F0030323700A4B1F70032000F0AEFD2B7803F0FC032B70237803F0FC032370304600F05DFFF8BDF8460040F946004092580040F8B5044614
:400700000022C04B1A7401285AD13822BE4B1A70042202331A70062201331A70002501331D7001331D703F2201331A7002331D7001331D7001331D7001260A331E70502284
:4007400003F527631A700A23B04A13702C210132117001321570442103321170482101321170013216700232157001321570013213704322A64B1A705220FFF799FF582298
:40078000A44B1A7001331D700223A34A137001321370A24B1D7001331D70284600F05AFB43F233329E4B1A603146052000F076FB3146BA2000F0F6FB9A491D2000F044FD49
:4007C000022C5DD13822904B1A70042202331A70062201331A70002501331D7001331D703F2201331A7002331D7001331D7001331D7001260A331E70502203F527631A7099
:40080000272201331A702C2201331A7001331D70552203331A705A2201331A70052701331F7002331E70112201331A70192201331A70972201331A704420FFF739FF582254
:40084000744B1A7001331D7005331F70022201331A7001331D7001331D70284600F0FAFA4FF47A426E4B1A603146384600F016FB3146252000F096FB6B491D2000F0E4FCCB
:40088000032C5DD13822604B1A70042202331A70062201331A70002501331D7001331D703F2201331A7002331D7001331D7001331D7001260A331E70502203F527631A7007
:4008C000272201331A702C2201331A7001331D70552203331A705A2201331A70052701331F7002331E70112201331A70192201331A70972201331A704420FFF7D9FE5822F5
:40090000444B1A7001331D7005331F70022201331A7001331D7001331D70284600F09AFA4FF47A423E4B1A603146384600F0B6FA3146252000F036FB3C491D2000F084FC1A
:40094000042C5DD13822304B1A70042202331A70062201331A70002401331C7001331C703F2201331A7002331C7001331C7001331C7001250A331D70502203F527631A707D
:40098000272201331A702C2201331A7001331C70552203331A705A2201331A70052601331E7002331D70112201331A70192201331A70972201331A704420FFF779FE582298
:4009C000144B1A7001331C7005331E70022201331A7001331C7001331C70204600F03AFA4FF47A420E4B1A602946304600F056FA2946252000F0D6FA0D491D2000F024FC8E
:400A0000F8BD00BF7881FF1F004E00408558004091580040945800409A5800409C580040A489FF1F210D0000250D0000290D00002D0D00002DE9F04182B0394D4FF0010863
:400A400085F80080374E00247474102000F014FA102000F095FA07211D2000F009FC0427314B1F7001331C7007331C702F4A137843F0180313702E4B1C7003F2F5231C7082
:400A800001331C700A22A3F209331A7001331C7002331C705B2205331A705E2201331A7004331C701422A3F68C231A70CDF8008010234FF4004248F6F0510220FFF788FD0D
:400AC0000223009310234FF4004249F2DA012046FFF77EFD0323009310234FF4004249F2DA012046FFF774FD009710234FF4004249F2DA012046FFF76BFD2B78013B06EB4C
:400B000083039A780B4B1A702B78013B36F82320094B1A802878FFF7F1FD02B0BDE8F081CC80FF1F7881FF1F96580040075B0040935800400E4E00400C4E004070B500F0EC
:400B40002FFD06462A4B1B782A4B1A7842F001021A701A7842F010021A7010331A7842F001021A701A7842F010021A70224D2B7843F002032B70214C237843F00203237023
:400B80001F4A137843F003031370032000F052FB2B7803F0FD032B70237803F0FD032370184A137843F0060313707A22164B1A70164A137843F0010313701032137843F0FB
:400BC000010313700F3A137843F0010313701032137843F0010313704FF000530C4A1360A2F5C0721360304600F0DEFC70BD00BFCC80FF1FAA430040F8460040F946004002
:400C0000915800407758004082580040A143004080E200E008B5084B9B7C4BB9064BDB7C13F0FF0F01D1FFF705FF0122024B9A74FFF784FF08BD00BF7881FF1F024A1378E3
:400C400043F0010313707047004E0040024A137803F0FE0313707047004E0040094B1B7C13F0FF0F03D0074B5B7CDBB203E0064B1B7803F00103012B01D00028EED018465E
:400C8000704700BF7881FF1F014E0040154B1B7803F00303012B07D8134B1888023B1B889BB243EA004013E0022B0AD10E4B1888023B1B7843EA00430C4A107843EA00202A
:400CC00006E00B4B188883B2074A108843EA0040084B1B7C13F0FF0F02D00022054B5A74704700BF144E0040124E0040114E0040104E00407881FF1F10B5084A137843F09F
:400D000004031370FFF79AFF0020FFF7A7FFFFF7BDFF0446FFF79AFF204610BD014E0040704700BF704700BF704700BF704700BF7222074B1A70202204331A700622603B83
:400D40001A70472210331A70002251331A7070478A64004010B500F023FC04460A4A137843F0200313700432137843F0100313700132137843F01003137000F07FF92046E9
:400D800000F012FC10BD00BF9A64004008B5054B1B7823B9FFF7CCFF0122024B1A70FFF7D9FF08BD9081FF1F084B1B78DBB213F0200F06D0064A1078C0B213F01E0F02D1AA
:400DC0007047002070470020704700BF6E6400404D640040034B1B7813F0040FFAD1024B187070476F6400404F640040044A137803F0BF03800100F04000184310707047A7
:400E000020510040044A137803F0DF03400100F0200018431070704720510040044A137803F0EF03000100F010001843107070472051004010B5002404E02046FFF7B8FAE2
:400E40000134E4B2012CF8D9FF22014B1A7010BDCD80FF1F10B50446FFF7ECFF2046FFF799FA014B1C7010BDCD80FF1F014B188880B2704780400040034B1A7800F0F800EE
:400E800010431870704700BF82400040024B187800F00700704700BF8240004070B505460E46FFF7F3FF0446FFF7E0FFA84256D02B4B1B7803F0010294B900B185B938B98C
:400EC000284B1D80284A137803F0BF03137070BD254A137843F040031370224B1D8070BD22B3002321490B7001240F310C7004310B700C390B7803F07F030B701A4B1B7838
:400F000013F0080F00D08DB9194B18800721013B1970164B1B7813F0010FFAD110490B7803F0FE030B700021104B19700C4B1B7813F0010F0DD00E4B1D800EB1032200E0E2
:400F400001220A4B1A70094B1B7813F0010FFAD170BD044B1D8002490B7813430B7070BDA243004080400040824000400140004002400040014B188880B270470041004045
:400F8000034B1A7800F0F80010431870704700BF02410040024B187800F00700704700BF0241004070B505460E46FFF7F3FF0446FFF7E0FFA84256D02B4B1B7803F00102EE
:400FC00094B900B185B938B9284B1D80284A137803F0BF03137070BD254A137843F040031370224B1D8070BD22B3002321490B70012413310C7004390B7008390B7803F0F7
:401000007F030B701A4B1B7813F0080F00D08DB9194B18800721013B1970164B1B7813F0010FFAD110490B7803F0FE030B700021104B19700C4B1B7813F0010F0DD00E4B4D
:401040001D800EB1032200E001220A4B1A70094B1B7813F0010FFAD170BD044B1D8002490B7813430B7070BDA143004000410040024100400140004002400040054A13785E
:4010800043F0020313701032137843F002031370704700BFA24300400B4A7F2313708021517007E0DA0002F1804202F5F042013BDBB21370002BF5D1DB0003F1804303F510
:4010C000F04300221A707047D080FF1F172815D831B103010A495A5C42F020025A5405E0030107495A5C02F0DF025A540001044A835C43F001038354002070470120704774
:401100001070004017280BD80001064A835C03F0F103490001F00E011943815400207047012070471070004041F6FF73994201D14FF4005141F6FF739A4201D14FF40052F7
:40114000172808D8C00000F1804000F5EC408180C280002070470120704700BF172805D8034B03EB0010417200207047012070471070004017281BD810B4C00000F1804418
:4011800004F5EC44D201D2B201F07F01114321709DF804201201D2B203F00F03134363709DF8083003F00F03A3700020E07001E00120704710BC704710B500F0F1F90A4B56
:4011C0005B78182B0BD9084A1478013B5370E30003F1804303F5F0431B78137000E0FF2400F0E2F9204610BDD080FF1F10F0800F0CD111F4704F0BD1C00000F1804000F55C
:40120000F04001808270C37000207047012070470120704710F0800F08D1C00000F1804000F5F0408180C280002070470120704701BE704708B5034B1B7A00FB03F000F06D
:40124000A7F908BDD880FF1F70B504460E46074B1D681F2802D90020FFF7EAFF04F01F04103455F8240045F8246070BD08ED00E038B504460D46072902D90020FFF7D8FFC7
:401280001F2C02D90020FFF7D3FF04F01F0000F1604000F564406D01EDB2057038BD00BF014B1B685864704708ED00E04001C0B2014B1870704700BF01E400E00222014B64
:4012C0001A60704700E100E00222014B1A60704780E100E010B50446FFF7F6FF2046FFF7DFFF0720FFF7E2FFFFF7E8FF10BD00BF10B500F0C9F8074C01212078FFF7E6FE22
:4013000001216078FFF7E2FE002000F0D9F800F071F810BD9281FF1F70B505460E464FF48043020C0121084600F072F8094C2070A078012302463146FFF758FF4FF4B7429A
:40134000A9B2A078FFF766FFA1782078FFF706FF70BD00BF9281FF1F70B505460E464FF48043020C0121084600F070F8094C6070E078012302463146FFF738FF4FF4B7426D
:40138000A9B2E078FFF746FFE1786078FFF7E6FE70BD00BF9281FF1F10B500F0B9F8022000F080F8042000F0A3F8FFF705FF084CA070FFF701FFE070064C4FF47A712046EE
:4013C000FFF7AAFF642104F57A70FFF7C5FF10BD9281FF1F8416000008B5054B1B7923B9FFF7DAFF0122024B1A71FFF781FF08BD9281FF1F054A137843F004031370103208
:40140000137843F004031370704700BFA2430040F0B583B016461F460B4D00242C700194009423460A4601462046FFF7A3FE3A4631462878FFF778FE02212878FFF762FED6
:40144000287803B0F0BD00BFE880FF1FF0B583B016461F460B4C012525700023019300930A4601462846FFF785FE3A4631462078FFF75AFE02212078FFF744FE207803B099
:40148000F0BD00BFE980FF1F054A137843F0010313701032137843F001031370704700BFA8430040054B1A7802F0FD021A701A7800F0020010431870704700BF2058004093
:4014C000014B1870704700BF805B0040064B1B78C3F3810303F19243063393F82031DBB2024A1370704700BF205800400846004008B5064B1A7802F0F3021A701A7800F0E0
:401500000C0010431870FFF7E1FF08BD2058004008B50020074B187001331870064A137843F008031370FFF7E3FF0220FFF7BAFF08BD00BF20580040875A0040014B1B688D
:401540009864704708ED00E04001C0B2014B1870704700BF02E400E00422014B1A60704700E100E00422014B1A60704780E100E010B50446FFF7F6FF2046FFF7DFFF07207D
:40158000FFF7E2FFFFF7E8FF10BD00BF000000000230800803D000BF01380046FCD17047EFF3108072B6704780F31088704700BF014B1868704700BF4C81FF1F0E4B70B51F
:4015C0001E460E4C0025E41AA410A54204D056F8253098470135F8E700F07CFA084B094C1E46E41AA4100025A54204D056F8253098470135F8E770BDE01A0000E01A000048
:40160000E01A0000E81A000010B5431E0A44914204D011F8014B03F8014FF8E710BD03460244934202D003F8011BFAE77047000000000000035B00402443004040000000DD
:40164000005100401000305100404000C0510040100000000140800C000D0140000300140140000800400140000A004C014000020050014020000000800C0140F803004811
:40168000800000008080818182828384848585868787888889898A8B8B8C8C8D8E8E8F8F90909192929393949595969697979899999A9A9B9B9C9C9D9E9E9F9FA0A0A1A1C2
:4016C000A2A3A3A4A4A5A5A6A6A7A7A8A8A9AAAAABABACACADADAEAEAFAFB0B0B1B1B2B2B3B3B4B4B5B5B6B6B7B7B8B8B8B9B9BABABBBBBCBCBDBDBDBEBEBFBFC0C0C1C160
:40170000C1C2C2C3C3C3C4C4C5C5C5C6C6C7C7C7C8C8C8C9C9CACACACBCBCBCCCCCCCDCDCDCECECECFCFCFD0D0D0D0D1D1D1D2D2D2D2D3D3D3D4D4D4D4D5D5D5D5D6D6D67E
:40174000D6D6D7D7D7D7D8D8D8D8D8D8D9D9D9D9D9DADADADADADADADBDBDBDBDBDBDBDBDCDCDCDCDCDCDCDCDCDCDDDDDDDDDDDDDDDDDDDDDDDDDDDDDDDDDDDDDDDDDDDDB0
:40178000DDDDDDDDDDDDDDDDDDDDDDDDDDDDDDDDDDDDDDDCDCDCDCDCDCDCDCDCDCDBDBDBDBDBDBDBDBDADADADADADADAD9D9D9D9D9D8D8D8D8D8D8D7D7D7D7D6D6D6D6D685
:4017C000D5D5D5D5D4D4D4D4D3D3D3D2D2D2D2D1D1D1D0D0D0D0CFCFCFCECECECDCDCDCCCCCCCBCBCBCACACAC9C9C8C8C8C7C7C7C6C6C5C5C5C4C4C3C3C3C2C2C1C1C1C0FE
:40180000C0BFBFBEBEBDBDBDBCBCBBBBBABAB9B9B8B8B8B7B7B6B6B5B5B4B4B3B3B2B2B1B1B0B0AFAFAEAEADADACACABABAAAAA9A8A8A7A7A6A6A5A5A4A4A3A3A2A1A1A07E
:40184000A09F9F9E9E9D9C9C9B9B9A9A99999897979696959594939392929190908F8F8E8E8D8C8C8B8B8A8989888887878685858484838282818180807F7E7E7D7D7C7BF6
:401880007B7A7A79787877777676757474737372717170706F6F6E6D6D6C6C6B6A6A6969686867666665656464636362616160605F5F5E5E5D5C5C5B5B5A5A5959585857FF
:4018C00057565555545453535252515150504F4F4E4E4D4D4C4C4B4B4A4A494948484747474646454544444343424242414140403F3F3E3E3E3D3D3C3C3C3B3B3A3A3A3921
:401900003938383837373736363535353434343333333232323131313030302F2F2F2F2E2E2E2D2D2D2D2C2C2C2B2B2B2B2A2A2A2A292929292928282828272727272727FF
:4019400026262626262525252525252524242424242424242323232323232323232322222222222222222222222222222222222222222222222222222222222222222222A4
:40198000222222222222222323232323232323232324242424242424242525252525252526262626262727272727272828282829292929292A2A2A2A2B2B2B2B2C2C2C2D9E
:4019C0002D2D2D2E2E2E2F2F2F2F303030313131323232333333343434353535363637373738383839393A3A3A3B3B3C3C3C3D3D3E3E3E3F3F404041414242424343444402
:401A000045454646474747484849494A4A4B4B4C4C4D4D4E4E4F4F505051515252535354545555565757585859595A5A5B5B5C5C5D5E5E5F5F60606161626363646465658A
:401A4000666667686869696A6A6B6C6C6D6D6E6F6F70707171727373747475767677777878797A7A7B7B7C7D7D7E7E7F80848A8F94989EA2A8ACB2B6BCC0C6CAD0D5DADE11
:401A8000E4E8EEF2F8FCF8F2EEE8E4DEDAD4D0CAC6C0BCB6B2ADA8A29E98948F8A84807A76706B66615D58534E49443E39342F2A25211C17120D0803080D12171C21252A4E
:401AC0002F34393E44494E53585D61666B70767A43000000F8B500BFF8BC08BC9E4670474D00000059050000F8B500BFF8BC08BC9E46704729000000081B0000C880FF1FF9
:401B000088000000580800000000000001FF00007F800000030000000000E02EC05D00001800000000366E01FFFF00000000000000000000000000000000000000000000D5
:401B4000000000000000000000000000D01A00000000000000000000000000000000000000000000000000000000000000000000000000000000000000000000000000007B
:401B8000000000000000000000000000EC80FF1F0000000000000000000000000000000000000000000000000000000000000000000000000000000000000000000000009B
:401BC00000000000000000000000000000000000000000000000000000000000000000000000000000000000000000000000000000000000000000000000000000000000E5
:401C000000000000000000000000000000000000000000000000000000000000000000000000000000000000000000000000000000000000000000000000000000000000A4
:401C40000000000000000000000000000000000000000000000000000000000000000000000000000000000000000000000000000000000000000000000000000000000064
:401C80000000000000000000000000000000000000000000000000000000000000000000000000000000000000000000000000000000000000000000000000000000000024
:020000040003F7
:0200000480007A
:400000000145004002520040015A00400364004002010140010501400406014001070140450A0140450B0140160C0140430D01405B0E0140390F0140021701400219014047
:40004000074001400341014004420140044301400644014007450140074601400247014008480140044C0140035001400251014017021102140187018A728E388F0FE040A1
:40008000E220EA0238083E0458045F011E2000090204041C050C0803090C0B120C070E180F021101120315011603181219011A041D081E032003210C231225042620281CD9
:4000C000291E2D122E202F0C30033101330E34203510361C39203B083E1056025712580459045B045C115D105F018601870888018C019503960197049B059D039F0CA50AD3
:40010000A704A903AA01AB04B001B10FBB02BE01D804D904DC10DF01001001A2031004A0050C070808400A020B540C040F2011101261130216041720180419811E402040B2
:400140002228235024802740284029202A482C042D0830803315376838483B103E045A0869106B157084710872089030920E930494C4964099069A059B029D819E089F14D2
:40018000A310A480A508A608AB80B202B304B502C0EFC22FC44FCA6FCC7FCE4ED602EA02EC04060108010B010C011404150617011B03270628022B022F05330734033604C4
:4001C00038203B083E40580459045C115F010018018A04A00504090A0A020E201094120A15101604180119081A081E041FA0201021102221234024202720281429022A085C
:400200002D402F243080310A321035043720381039023B403D104051411248445201880489018B0291409220930894A4964099049A049D039F14A212A310A440A620A720FE
:40024000B202B304C0EFC22DC44FCA77CC6FCE2DD00FD2040601070209060D060E011110130815181918210823112504300131183306350139083E013F044003450449FF55
:400280004A074BFF4C404D204EF04F05500854185604580459045A045B045C105D115F01604061A8624063208002820C8418851486068802890C8A1C8B11951C97029B0362
:4002C0009C01A509A618A710A910AA06AD10AE10AF0CB21EB31FB401BA08BE10C046C103C5E0C6C0C70BC81AC9FFCAFFCBFFCEF0CF44D00CD401D804D904DA04DB04DC11CF
:40030000DD11DF01E6C0EA40EB02008002200420050406400C800E100F20141016061B011D041E0820102212272029062C102D402F243202331435043610372038A8394021
:400340003A703D083E20401046504B084C844D01500452045504571059015D015E58600463428B40C075C280C4E0CA73CC67CE6ED0C2D220D6F1D80DE040E220B210EC1056
:40038000E880EC10338837203C408B088C40CC70CE2094409F20A7809440A780AF20EA4011409440A780C44033807C208F80CC08DE01E0020108138053019C20C008C40297
:4003C000D40145029C20AB01AF80B508D001EA029C20A5022440270494409F04A940AB80B704C8A0B020B502E801EC0800020C020E02003E100200000139400613000C00BD
:400400001F3F000003272010000003190C060000000000201C04030008200000040200001F26000902004000003E0F00100760000000080A000050006403020001C000E0A5
:4004400022FFFFFF62A0F0410C000000000000000404040011010001000000000000400200103010001010120000000000000000000000000000000000000000000030000B
:40048000000B0B0000000000820001F27200020000000000BB0018010000000000000000000000000000000000000000000000000000000000000000000000000000000069
:4004C00000000000000000000000000000000000000000000000000000000000000000000000000000000000000000000000000000000000000000000000000000000000FC
:4005000000000000000000000000000000000000000000000000000000000000000000000000000000000000000000000000000000000000000000000000000000000000BB
:40054000000000000000000000000000000000000000000000000000000000000000000000000000000000000000000000000000000000000000000000000000000000007B
:40058000000000000000000000000000000000000000000000000000000000000000000000000000000000000000000000000000000000000000000000000000000000003B
:0200000490006A
:0400000000004005B7
:0200000490105A
:04000000BC90ACAF55
:0200000490303A
:02000000F89175
:0200000490402A
:4000000000000000000000000000000000000000000000000000000000000000000000000000000000000000000000000000000000000000000000000000000000000000C0
:400040000000000000000000000000000000000000000000000000000000000000000000000000000000000000000000000000000000000000000000000000000000000080
:400080000000000000000000000000000000000000000000000000000000000000000000000000000000000000000000000000000000000000000000000000000000000040
:4000C0000000000000000000000000000000000000000000000000000000000000000000000000000000000000000000000000000000000000000000000000000000000000
:0200000490501A
:0C00000000012E16006900012E20F8FA05
:00000001FF